{
  "_format": "hh-sol-artifact-1",
  "contractName": "MyEpicGame",
  "sourceName": "contracts/MyEpicGame.sol",
  "abi": [
    {
      "inputs": [
        {
          "internalType": "string[]",
          "name": "characterNames",
          "type": "string[]"
        },
        {
          "internalType": "string[]",
          "name": "characterImageURIs",
          "type": "string[]"
        },
        {
          "internalType": "uint256[]",
          "name": "characterHp",
          "type": "uint256[]"
        },
        {
          "internalType": "uint256[]",
          "name": "characterAttackDmg",
          "type": "uint256[]"
        },
        {
          "internalType": "string",
          "name": "bossName",
          "type": "string"
        },
        {
          "internalType": "string",
          "name": "bossImageURI",
          "type": "string"
        },
        {
          "internalType": "uint256",
          "name": "bossHp",
          "type": "uint256"
        },
        {
          "internalType": "uint256",
          "name": "bossAttackDamage",
          "type": "uint256"
        }
      ],
      "stateMutability": "nonpayable",
      "type": "constructor"
    },
    {
      "anonymous": false,
      "inputs": [
        {
          "indexed": true,
          "internalType": "address",
          "name": "owner",
          "type": "address"
        },
        {
          "indexed": true,
          "internalType": "address",
          "name": "approved",
          "type": "address"
        },
        {
          "indexed": true,
          "internalType": "uint256",
          "name": "tokenId",
          "type": "uint256"
        }
      ],
      "name": "Approval",
      "type": "event"
    },
    {
      "anonymous": false,
      "inputs": [
        {
          "indexed": true,
          "internalType": "address",
          "name": "owner",
          "type": "address"
        },
        {
          "indexed": true,
          "internalType": "address",
          "name": "operator",
          "type": "address"
        },
        {
          "indexed": false,
          "internalType": "bool",
          "name": "approved",
          "type": "bool"
        }
      ],
      "name": "ApprovalForAll",
      "type": "event"
    },
    {
      "anonymous": false,
      "inputs": [
        {
          "indexed": false,
          "internalType": "uint256",
          "name": "newBossHp",
          "type": "uint256"
        },
        {
          "indexed": false,
          "internalType": "uint256",
          "name": "newPlayerHp",
          "type": "uint256"
        }
      ],
      "name": "AttackComplete",
      "type": "event"
    },
    {
      "anonymous": false,
      "inputs": [
        {
          "indexed": false,
          "internalType": "address",
          "name": "sender",
          "type": "address"
        },
        {
          "indexed": false,
          "internalType": "uint256",
          "name": "tokenId",
          "type": "uint256"
        },
        {
          "indexed": false,
          "internalType": "uint256",
          "name": "characterIndex",
          "type": "uint256"
        }
      ],
      "name": "CharacterNFTMinted",
      "type": "event"
    },
    {
      "anonymous": false,
      "inputs": [
        {
          "indexed": true,
          "internalType": "address",
          "name": "from",
          "type": "address"
        },
        {
          "indexed": true,
          "internalType": "address",
          "name": "to",
          "type": "address"
        },
        {
          "indexed": true,
          "internalType": "uint256",
          "name": "tokenId",
          "type": "uint256"
        }
      ],
      "name": "Transfer",
      "type": "event"
    },
    {
      "inputs": [
        {
          "internalType": "address",
          "name": "to",
          "type": "address"
        },
        {
          "internalType": "uint256",
          "name": "tokenId",
          "type": "uint256"
        }
      ],
      "name": "approve",
      "outputs": [],
      "stateMutability": "nonpayable",
      "type": "function"
    },
    {
      "inputs": [],
      "name": "attackBoss",
      "outputs": [],
      "stateMutability": "nonpayable",
      "type": "function"
    },
    {
      "inputs": [
        {
          "internalType": "address",
          "name": "owner",
          "type": "address"
        }
      ],
      "name": "balanceOf",
      "outputs": [
        {
          "internalType": "uint256",
          "name": "",
          "type": "uint256"
        }
      ],
      "stateMutability": "view",
      "type": "function"
    },
    {
      "inputs": [],
      "name": "bigBoss",
      "outputs": [
        {
          "internalType": "string",
          "name": "name",
          "type": "string"
        },
        {
          "internalType": "string",
          "name": "imageURI",
          "type": "string"
        },
        {
          "internalType": "uint256",
          "name": "hp",
          "type": "uint256"
        },
        {
          "internalType": "uint256",
          "name": "maxHp",
          "type": "uint256"
        },
        {
          "internalType": "uint256",
          "name": "attackDamage",
          "type": "uint256"
        }
      ],
      "stateMutability": "view",
      "type": "function"
    },
    {
      "inputs": [],
      "name": "checkIfUserHasNFT",
      "outputs": [
        {
          "components": [
            {
              "internalType": "uint256",
              "name": "characterIndex",
              "type": "uint256"
            },
            {
              "internalType": "string",
              "name": "name",
              "type": "string"
            },
            {
              "internalType": "string",
              "name": "imageURI",
              "type": "string"
            },
            {
              "internalType": "uint256",
              "name": "hp",
              "type": "uint256"
            },
            {
              "internalType": "uint256",
              "name": "maxHp",
              "type": "uint256"
            },
            {
              "internalType": "uint256",
              "name": "attackDamage",
              "type": "uint256"
            }
          ],
          "internalType": "struct MyEpicGame.CharacterAttributes",
          "name": "",
          "type": "tuple"
        }
      ],
      "stateMutability": "view",
      "type": "function"
    },
    {
      "inputs": [],
      "name": "getAllDefaultCharacters",
      "outputs": [
        {
          "components": [
            {
              "internalType": "uint256",
              "name": "characterIndex",
              "type": "uint256"
            },
            {
              "internalType": "string",
              "name": "name",
              "type": "string"
            },
            {
              "internalType": "string",
              "name": "imageURI",
              "type": "string"
            },
            {
              "internalType": "uint256",
              "name": "hp",
              "type": "uint256"
            },
            {
              "internalType": "uint256",
              "name": "maxHp",
              "type": "uint256"
            },
            {
              "internalType": "uint256",
              "name": "attackDamage",
              "type": "uint256"
            }
          ],
          "internalType": "struct MyEpicGame.CharacterAttributes[]",
          "name": "",
          "type": "tuple[]"
        }
      ],
      "stateMutability": "view",
      "type": "function"
    },
    {
      "inputs": [
        {
          "internalType": "uint256",
          "name": "tokenId",
          "type": "uint256"
        }
      ],
      "name": "getApproved",
      "outputs": [
        {
          "internalType": "address",
          "name": "",
          "type": "address"
        }
      ],
      "stateMutability": "view",
      "type": "function"
    },
    {
      "inputs": [],
      "name": "getBoss",
      "outputs": [
        {
          "components": [
            {
              "internalType": "string",
              "name": "name",
              "type": "string"
            },
            {
              "internalType": "string",
              "name": "imageURI",
              "type": "string"
            },
            {
              "internalType": "uint256",
              "name": "hp",
              "type": "uint256"
            },
            {
              "internalType": "uint256",
              "name": "maxHp",
              "type": "uint256"
            },
            {
              "internalType": "uint256",
              "name": "attackDamage",
              "type": "uint256"
            }
          ],
          "internalType": "struct MyEpicGame.BigBoss",
          "name": "",
          "type": "tuple"
        }
      ],
      "stateMutability": "view",
      "type": "function"
    },
    {
      "inputs": [
        {
          "internalType": "address",
          "name": "owner",
          "type": "address"
        },
        {
          "internalType": "address",
          "name": "operator",
          "type": "address"
        }
      ],
      "name": "isApprovedForAll",
      "outputs": [
        {
          "internalType": "bool",
          "name": "",
          "type": "bool"
        }
      ],
      "stateMutability": "view",
      "type": "function"
    },
    {
      "inputs": [
        {
          "internalType": "uint256",
          "name": "_characterIndex",
          "type": "uint256"
        }
      ],
      "name": "mintCharacterNFT",
      "outputs": [],
      "stateMutability": "nonpayable",
      "type": "function"
    },
    {
      "inputs": [],
      "name": "name",
      "outputs": [
        {
          "internalType": "string",
          "name": "",
          "type": "string"
        }
      ],
      "stateMutability": "view",
      "type": "function"
    },
    {
      "inputs": [
        {
          "internalType": "uint256",
          "name": "",
          "type": "uint256"
        }
      ],
      "name": "nftHolderAttributes",
      "outputs": [
        {
          "internalType": "uint256",
          "name": "characterIndex",
          "type": "uint256"
        },
        {
          "internalType": "string",
          "name": "name",
          "type": "string"
        },
        {
          "internalType": "string",
          "name": "imageURI",
          "type": "string"
        },
        {
          "internalType": "uint256",
          "name": "hp",
          "type": "uint256"
        },
        {
          "internalType": "uint256",
          "name": "maxHp",
          "type": "uint256"
        },
        {
          "internalType": "uint256",
          "name": "attackDamage",
          "type": "uint256"
        }
      ],
      "stateMutability": "view",
      "type": "function"
    },
    {
      "inputs": [
        {
          "internalType": "address",
          "name": "",
          "type": "address"
        }
      ],
      "name": "nftHolders",
      "outputs": [
        {
          "internalType": "uint256",
          "name": "",
          "type": "uint256"
        }
      ],
      "stateMutability": "view",
      "type": "function"
    },
    {
      "inputs": [
        {
          "internalType": "uint256",
          "name": "tokenId",
          "type": "uint256"
        }
      ],
      "name": "ownerOf",
      "outputs": [
        {
          "internalType": "address",
          "name": "",
          "type": "address"
        }
      ],
      "stateMutability": "view",
      "type": "function"
    },
    {
      "inputs": [
        {
          "internalType": "address",
          "name": "from",
          "type": "address"
        },
        {
          "internalType": "address",
          "name": "to",
          "type": "address"
        },
        {
          "internalType": "uint256",
          "name": "tokenId",
          "type": "uint256"
        }
      ],
      "name": "safeTransferFrom",
      "outputs": [],
      "stateMutability": "nonpayable",
      "type": "function"
    },
    {
      "inputs": [
        {
          "internalType": "address",
          "name": "from",
          "type": "address"
        },
        {
          "internalType": "address",
          "name": "to",
          "type": "address"
        },
        {
          "internalType": "uint256",
          "name": "tokenId",
          "type": "uint256"
        },
        {
          "internalType": "bytes",
          "name": "_data",
          "type": "bytes"
        }
      ],
      "name": "safeTransferFrom",
      "outputs": [],
      "stateMutability": "nonpayable",
      "type": "function"
    },
    {
      "inputs": [
        {
          "internalType": "address",
          "name": "operator",
          "type": "address"
        },
        {
          "internalType": "bool",
          "name": "approved",
          "type": "bool"
        }
      ],
      "name": "setApprovalForAll",
      "outputs": [],
      "stateMutability": "nonpayable",
      "type": "function"
    },
    {
      "inputs": [
        {
          "internalType": "bytes4",
          "name": "interfaceId",
          "type": "bytes4"
        }
      ],
      "name": "supportsInterface",
      "outputs": [
        {
          "internalType": "bool",
          "name": "",
          "type": "bool"
        }
      ],
      "stateMutability": "view",
      "type": "function"
    },
    {
      "inputs": [],
      "name": "symbol",
      "outputs": [
        {
          "internalType": "string",
          "name": "",
          "type": "string"
        }
      ],
      "stateMutability": "view",
      "type": "function"
    },
    {
      "inputs": [
        {
          "internalType": "uint256",
          "name": "_tokenId",
          "type": "uint256"
        }
      ],
      "name": "tokenURI",
      "outputs": [
        {
          "internalType": "string",
          "name": "",
          "type": "string"
        }
      ],
      "stateMutability": "view",
      "type": "function"
    },
    {
      "inputs": [
        {
          "internalType": "address",
          "name": "from",
          "type": "address"
        },
        {
          "internalType": "address",
          "name": "to",
          "type": "address"
        },
        {
          "internalType": "uint256",
          "name": "tokenId",
          "type": "uint256"
        }
      ],
      "name": "transferFrom",
      "outputs": [],
      "stateMutability": "nonpayable",
      "type": "function"
    }
  ],
  "bytecode": "0x60806040523480156200001157600080fd5b5060405162005e2238038062005e22833981810160405281019062000037919062000a5a565b6040518060400160405280600681526020017f4865726f657300000000000000000000000000000000000000000000000000008152506040518060400160405280600481526020017f4845524f000000000000000000000000000000000000000000000000000000008152508160009080519060200190620000bb929190620007ed565b508060019080519060200190620000d4929190620007ed565b5050506040518060a0016040528085815260200184815260200183815260200183815260200182815250600660008201518160000190805190602001906200011e929190620007ed565b5060208201518160010190805190602001906200013d929190620007ed565b50604082015181600201556060820151816003015560808201518160040155905050620002c06040518060600160405280602a815260200162005df8602a9139600660000180546200018f9062000ddd565b80601f0160208091040260200160405190810160405280929190818152602001828054620001bd9062000ddd565b80156200020e5780601f10620001e2576101008083540402835291602001916200020e565b820191906000526020600020905b815481529060010190602001808311620001f057829003601f168201915b5050505050600660020154600660010180546200022b9062000ddd565b80601f0160208091040260200160405190810160405280929190818152602001828054620002599062000ddd565b8015620002aa5780601f106200027e57610100808354040283529160200191620002aa565b820191906000526020600020905b8154815290600101906020018083116200028c57829003601f168201915b50505050506200070260201b62001f221760201c565b60005b8851811015620006dc57600c6040518060c001604052808381526020018b84815181106200031a577f4e487b7100000000000000000000000000000000000000000000000000000000600052603260045260246000fd5b602002602001015181526020018a848151811062000361577f4e487b7100000000000000000000000000000000000000000000000000000000600052603260045260246000fd5b60200260200101518152602001898481518110620003a8577f4e487b7100000000000000000000000000000000000000000000000000000000600052603260045260246000fd5b60200260200101518152602001898481518110620003ef577f4e487b7100000000000000000000000000000000000000000000000000000000600052603260045260246000fd5b6020026020010151815260200188848151811062000436577f4e487b7100000000000000000000000000000000000000000000000000000000600052603260045260246000fd5b6020026020010151815250908060018154018082558091505060019003906000526020600020906006020160009091909190915060008201518160000155602082015181600101908051906020019062000492929190620007ed565b506040820151816002019080519060200190620004b1929190620007ed565b50606082015181600301556080820151816004015560a0820151816005015550506000600c82815481106200050f577f4e487b7100000000000000000000000000000000000000000000000000000000600052603260045260246000fd5b90600052602060002090600602016040518060c001604052908160008201548152602001600182018054620005449062000ddd565b80601f0160208091040260200160405190810160405280929190818152602001828054620005729062000ddd565b8015620005c35780601f106200059757610100808354040283529160200191620005c3565b820191906000526020600020905b815481529060010190602001808311620005a557829003601f168201915b50505050508152602001600282018054620005de9062000ddd565b80601f01602080910402602001604051908101604052809291908181526020018280546200060c9062000ddd565b80156200065d5780601f1062000631576101008083540402835291602001916200065d565b820191906000526020600020905b8154815290600101906020018083116200063f57829003601f168201915b5050505050815260200160038201548152602001600482015481526020016005820154815250509050620006c460405180606001604052806025815260200162005dd3602591398260200151836060015184604001516200070260201b62001f221760201c565b50600181620006d4919062000d40565b9050620002c3565b50620006f4600b620007ae60201b62001fc41760201c565b505050505050505062000f01565b620007a8848484846040516024016200071f949392919062000c05565b6040516020818303038152906040527f8d142cdd000000000000000000000000000000000000000000000000000000007bffffffffffffffffffffffffffffffffffffffffffffffffffffffff19166020820180517bffffffffffffffffffffffffffffffffffffffffffffffffffffffff8381831617835250505050620007c460201b60201c565b50505050565b6001816000016000828254019250508190555050565b60008151905060006a636f6e736f6c652e6c6f679050602083016000808483855afa5050505050565b828054620007fb9062000ddd565b90600052602060002090601f0160209004810192826200081f57600085556200086b565b82601f106200083a57805160ff19168380011785556200086b565b828001600101855582156200086b579182015b828111156200086a5782518255916020019190600101906200084d565b5b5090506200087a91906200087e565b5090565b5b80821115620008995760008160009055506001016200087f565b5090565b6000620008b4620008ae8462000c90565b62000c67565b9050808382526020820190508260005b85811015620008f85781518501620008dd888262000a16565b845260208401935060208301925050600181019050620008c4565b5050509392505050565b600062000919620009138462000cbf565b62000c67565b905080838252602082019050828560208602820111156200093957600080fd5b60005b858110156200096d578162000952888262000a43565b8452602084019350602083019250506001810190506200093c565b5050509392505050565b60006200098e620009888462000cee565b62000c67565b905082815260208101848484011115620009a757600080fd5b620009b484828562000da7565b509392505050565b600082601f830112620009ce57600080fd5b8151620009e08482602086016200089d565b91505092915050565b600082601f830112620009fb57600080fd5b815162000a0d84826020860162000902565b91505092915050565b600082601f83011262000a2857600080fd5b815162000a3a84826020860162000977565b91505092915050565b60008151905062000a548162000ee7565b92915050565b600080600080600080600080610100898b03121562000a7857600080fd5b600089015167ffffffffffffffff81111562000a9357600080fd5b62000aa18b828c01620009bc565b985050602089015167ffffffffffffffff81111562000abf57600080fd5b62000acd8b828c01620009bc565b975050604089015167ffffffffffffffff81111562000aeb57600080fd5b62000af98b828c01620009e9565b965050606089015167ffffffffffffffff81111562000b1757600080fd5b62000b258b828c01620009e9565b955050608089015167ffffffffffffffff81111562000b4357600080fd5b62000b518b828c0162000a16565b94505060a089015167ffffffffffffffff81111562000b6f57600080fd5b62000b7d8b828c0162000a16565b93505060c062000b908b828c0162000a43565b92505060e062000ba38b828c0162000a43565b9150509295985092959890939650565b600062000bc08262000d24565b62000bcc818562000d2f565b935062000bde81856020860162000da7565b62000be98162000ed6565b840191505092915050565b62000bff8162000d9d565b82525050565b6000608082019050818103600083015262000c21818762000bb3565b9050818103602083015262000c37818662000bb3565b905062000c48604083018562000bf4565b818103606083015262000c5c818462000bb3565b905095945050505050565b600062000c7362000c86565b905062000c81828262000e13565b919050565b6000604051905090565b600067ffffffffffffffff82111562000cae5762000cad62000ea7565b5b602082029050602081019050919050565b600067ffffffffffffffff82111562000cdd5762000cdc62000ea7565b5b602082029050602081019050919050565b600067ffffffffffffffff82111562000d0c5762000d0b62000ea7565b5b62000d178262000ed6565b9050602081019050919050565b600081519050919050565b600082825260208201905092915050565b600062000d4d8262000d9d565b915062000d5a8362000d9d565b9250827fffffffffffffffffffffffffffffffffffffffffffffffffffffffffffffffff0382111562000d925762000d9162000e49565b5b828201905092915050565b6000819050919050565b60005b8381101562000dc757808201518184015260208101905062000daa565b8381111562000dd7576000848401525b50505050565b6000600282049050600182168062000df657607f821691505b6020821081141562000e0d5762000e0c62000e78565b5b50919050565b62000e1e8262000ed6565b810181811067ffffffffffffffff8211171562000e405762000e3f62000ea7565b5b80604052505050565b7f4e487b7100000000000000000000000000000000000000000000000000000000600052601160045260246000fd5b7f4e487b7100000000000000000000000000000000000000000000000000000000600052602260045260246000fd5b7f4e487b7100000000000000000000000000000000000000000000000000000000600052604160045260246000fd5b6000601f19601f8301169050919050565b62000ef28162000d9d565b811462000efe57600080fd5b50565b614ec28062000f116000396000f3fe608060405234801561001057600080fd5b50600436106101375760003560e01c806398da4c95116100b8578063c76d9e7d1161007c578063c76d9e7d14610369578063c87b56dd14610387578063c8cf27f4146103b7578063d4f24c5b146103d5578063e985e9c5146103df578063f8b81ef71461040f57610137565b806398da4c95146102bc578063a22cb465146102f1578063a9c326791461030d578063b88d4fde1461032f578063b953084e1461034b57610137565b806342842e0e116100ff57806342842e0e146101f25780636352211e1461020e57806370a082311461023e5780637df124a11461026e57806395d89b411461029e57610137565b806301ffc9a71461013c57806306fdde031461016c578063081812fc1461018a578063095ea7b3146101ba57806323b872dd146101d6575b600080fd5b61015660048036038101906101519190613569565b61042b565b6040516101639190613dce565b60405180910390f35b61017461050d565b6040516101819190613de9565b60405180910390f35b6101a4600480360381019061019f91906135bb565b61059f565b6040516101b19190613d0e565b60405180910390f35b6101d460048036038101906101cf919061352d565b610624565b005b6101f060048036038101906101eb9190613427565b61073c565b005b61020c60048036038101906102079190613427565b61079c565b005b610228600480360381019061022391906135bb565b6107bc565b6040516102359190613d0e565b60405180910390f35b610258600480360381019061025391906133c2565b61086e565b6040516102659190614227565b60405180910390f35b610288600480360381019061028391906133c2565b610926565b6040516102959190614227565b60405180910390f35b6102a661093e565b6040516102b39190613de9565b60405180910390f35b6102d660048036038101906102d191906135bb565b6109d0565b6040516102e896959493929190614242565b60405180910390f35b61030b600480360381019061030691906134f1565b610b1c565b005b610315610b32565b604051610326959493929190613f34565b60405180910390f35b61034960048036038101906103449190613476565b610c66565b005b610353610cc8565b6040516103609190613dac565b60405180910390f35b610371610e73565b60405161037e91906141e3565b60405180910390f35b6103a1600480360381019061039c91906135bb565b610fcf565b6040516103ae9190613de9565b60405180910390f35b6103bf6111ea565b6040516103cc9190614205565b60405180910390f35b6103dd6113c1565b005b6103f960048036038101906103f491906133eb565b611a9a565b6040516104069190613dce565b60405180910390f35b610429600480360381019061042491906135bb565b611b2e565b005b60007f80ac58cd000000000000000000000000000000000000000000000000000000007bffffffffffffffffffffffffffffffffffffffffffffffffffffffff1916827bffffffffffffffffffffffffffffffffffffffffffffffffffffffff191614806104f657507f5b5e139f000000000000000000000000000000000000000000000000000000007bffffffffffffffffffffffffffffffffffffffffffffffffffffffff1916827bffffffffffffffffffffffffffffffffffffffffffffffffffffffff1916145b80610506575061050582611fda565b5b9050919050565b60606000805461051c90614588565b80601f016020809104026020016040519081016040528092919081815260200182805461054890614588565b80156105955780601f1061056a57610100808354040283529160200191610595565b820191906000526020600020905b81548152906001019060200180831161057857829003601f168201915b5050505050905090565b60006105aa82612044565b6105e9576040517f08c379a00000000000000000000000000000000000000000000000000000000081526004016105e090614163565b60405180910390fd5b6004600083815260200190815260200160002060009054906101000a900473ffffffffffffffffffffffffffffffffffffffff169050919050565b600061062f826107bc565b90508073ffffffffffffffffffffffffffffffffffffffff168373ffffffffffffffffffffffffffffffffffffffff1614156106a0576040517f08c379a000000000000000000000000000000000000000000000000000000000815260040161069790614183565b60405180910390fd5b8073ffffffffffffffffffffffffffffffffffffffff166106bf6120b0565b73ffffffffffffffffffffffffffffffffffffffff1614806106ee57506106ed816106e86120b0565b611a9a565b5b61072d576040517f08c379a0000000000000000000000000000000000000000000000000000000008152600401610724906140e3565b60405180910390fd5b61073783836120b8565b505050565b61074d6107476120b0565b82612171565b61078c576040517f08c379a0000000000000000000000000000000000000000000000000000000008152600401610783906141a3565b60405180910390fd5b61079783838361224f565b505050565b6107b783838360405180602001604052806000815250610c66565b505050565b6000806002600084815260200190815260200160002060009054906101000a900473ffffffffffffffffffffffffffffffffffffffff169050600073ffffffffffffffffffffffffffffffffffffffff168173ffffffffffffffffffffffffffffffffffffffff161415610865576040517f08c379a000000000000000000000000000000000000000000000000000000000815260040161085c90614123565b60405180910390fd5b80915050919050565b60008073ffffffffffffffffffffffffffffffffffffffff168273ffffffffffffffffffffffffffffffffffffffff1614156108df576040517f08c379a00000000000000000000000000000000000000000000000000000000081526004016108d690614103565b60405180910390fd5b600360008373ffffffffffffffffffffffffffffffffffffffff1673ffffffffffffffffffffffffffffffffffffffff168152602001908152602001600020549050919050565b600e6020528060005260406000206000915090505481565b60606001805461094d90614588565b80601f016020809104026020016040519081016040528092919081815260200182805461097990614588565b80156109c65780601f1061099b576101008083540402835291602001916109c6565b820191906000526020600020905b8154815290600101906020018083116109a957829003601f168201915b5050505050905090565b600d6020528060005260406000206000915090508060000154908060010180546109f990614588565b80601f0160208091040260200160405190810160405280929190818152602001828054610a2590614588565b8015610a725780601f10610a4757610100808354040283529160200191610a72565b820191906000526020600020905b815481529060010190602001808311610a5557829003601f168201915b505050505090806002018054610a8790614588565b80601f0160208091040260200160405190810160405280929190818152602001828054610ab390614588565b8015610b005780601f10610ad557610100808354040283529160200191610b00565b820191906000526020600020905b815481529060010190602001808311610ae357829003601f168201915b5050505050908060030154908060040154908060050154905086565b610b2e610b276120b0565b83836124b6565b5050565b6006806000018054610b4390614588565b80601f0160208091040260200160405190810160405280929190818152602001828054610b6f90614588565b8015610bbc5780601f10610b9157610100808354040283529160200191610bbc565b820191906000526020600020905b815481529060010190602001808311610b9f57829003601f168201915b505050505090806001018054610bd190614588565b80601f0160208091040260200160405190810160405280929190818152602001828054610bfd90614588565b8015610c4a5780601f10610c1f57610100808354040283529160200191610c4a565b820191906000526020600020905b815481529060010190602001808311610c2d57829003601f168201915b5050505050908060020154908060030154908060040154905085565b610c77610c716120b0565b83612171565b610cb6576040517f08c379a0000000000000000000000000000000000000000000000000000000008152600401610cad906141a3565b60405180910390fd5b610cc284848484612623565b50505050565b6060600c805480602002602001604051908101604052809291908181526020016000905b82821015610e6a57838290600052602060002090600602016040518060c001604052908160008201548152602001600182018054610d2990614588565b80601f0160208091040260200160405190810160405280929190818152602001828054610d5590614588565b8015610da25780601f10610d7757610100808354040283529160200191610da2565b820191906000526020600020905b815481529060010190602001808311610d8557829003601f168201915b50505050508152602001600282018054610dbb90614588565b80601f0160208091040260200160405190810160405280929190818152602001828054610de790614588565b8015610e345780601f10610e0957610100808354040283529160200191610e34565b820191906000526020600020905b815481529060010190602001808311610e1757829003601f168201915b50505050508152602001600382015481526020016004820154815260200160058201548152505081526020019060010190610cec565b50505050905090565b610e7b6131e9565b60066040518060a0016040529081600082018054610e9890614588565b80601f0160208091040260200160405190810160405280929190818152602001828054610ec490614588565b8015610f115780601f10610ee657610100808354040283529160200191610f11565b820191906000526020600020905b815481529060010190602001808311610ef457829003601f168201915b50505050508152602001600182018054610f2a90614588565b80601f0160208091040260200160405190810160405280929190818152602001828054610f5690614588565b8015610fa35780601f10610f7857610100808354040283529160200191610fa3565b820191906000526020600020905b815481529060010190602001808311610f8657829003601f168201915b505050505081526020016002820154815260200160038201548152602001600482015481525050905090565b60606000600d60008481526020019081526020016000206040518060c00160405290816000820154815260200160018201805461100b90614588565b80601f016020809104026020016040519081016040528092919081815260200182805461103790614588565b80156110845780601f1061105957610100808354040283529160200191611084565b820191906000526020600020905b81548152906001019060200180831161106757829003601f168201915b5050505050815260200160028201805461109d90614588565b80601f01602080910402602001604051908101604052809291908181526020018280546110c990614588565b80156111165780601f106110eb57610100808354040283529160200191611116565b820191906000526020600020905b8154815290600101906020018083116110f957829003601f168201915b5050505050815260200160038201548152602001600482015481526020016005820154815250509050600061114e826060015161267f565b9050600061115f836080015161267f565b905060006111708460a0015161267f565b905060006111b685602001516111858961267f565b87604001518787876040516020016111a296959493929190613c47565b60405160208183030381529060405261282c565b90506000816040516020016111cb9190613cec565b6040516020818303038152906040529050809650505050505050919050565b6111f2613218565b6000600e60003373ffffffffffffffffffffffffffffffffffffffff1673ffffffffffffffffffffffffffffffffffffffff168152602001908152602001600020549050600081106113b057600d60008281526020019081526020016000206040518060c00160405290816000820154815260200160018201805461127690614588565b80601f01602080910402602001604051908101604052809291908181526020018280546112a290614588565b80156112ef5780601f106112c4576101008083540402835291602001916112ef565b820191906000526020600020905b8154815290600101906020018083116112d257829003601f168201915b5050505050815260200160028201805461130890614588565b80601f016020809104026020016040519081016040528092919081815260200182805461133490614588565b80156113815780601f1061135657610100808354040283529160200191611381565b820191906000526020600020905b81548152906001019060200180831161136457829003601f168201915b5050505050815260200160038201548152602001600482015481526020016005820154815250509150506113be565b6113b8613218565b80925050505b90565b6113ff6040518060400160405280600f81526020017f41747461636b696e6720626f73732100000000000000000000000000000000008152506129ea565b6000600e60003373ffffffffffffffffffffffffffffffffffffffff1673ffffffffffffffffffffffffffffffffffffffff1681526020019081526020016000205490506000600d6000838152602001908152602001600020600301541161149c576040517f08c379a0000000000000000000000000000000000000000000000000000000008152600401611493906141c3565b60405180910390fd5b6000600660020154116114e4576040517f08c379a00000000000000000000000000000000000000000000000000000000081526004016114db90614003565b60405180910390fd5b6000600d600083815260200190815260200160002090506115b36040518060600160405280603c8152602001614e51603c913982600101805461152690614588565b80601f016020809104026020016040519081016040528092919081815260200182805461155290614588565b801561159f5780601f106115745761010080835404028352916020019161159f565b820191906000526020600020905b81548152906001019060200180831161158257829003601f168201915b505050505083600301548460050154612a83565b61168b6040518060400160405280601b81526020017f426f73732025732068617320257320485020616e642025732041440000000000815250600660000180546115fc90614588565b80601f016020809104026020016040519081016040528092919081815260200182805461162890614588565b80156116755780601f1061164a57610100808354040283529160200191611675565b820191906000526020600020905b81548152906001019060200180831161165857829003601f168201915b5050505050600660020154600660040154612a83565b806005015460066002015410156117785760006006600201819055506117736040518060400160405280600f81526020017f426f737320257320697320646561640000000000000000000000000000000000815250600660000180546116f090614588565b80601f016020809104026020016040519081016040528092919081815260200182805461171c90614588565b80156117695780601f1061173e57610100808354040283529160200191611769565b820191906000526020600020905b81548152906001019060200180831161174c57829003601f168201915b5050505050612b25565b61184c565b806005015460066002015461178d919061449e565b60066002018190555061184b604051806060016040528060218152602001614d9a60219139600660000180546117c290614588565b80601f01602080910402602001604051908101604052809291908181526020018280546117ee90614588565b801561183b5780601f106118105761010080835404028352916020019161183b565b820191906000526020600020905b81548152906001019060200180831161181e57829003601f168201915b5050505050600660020154612bc1565b5b60066004015481600301541161193657600081600301819055506119316040518060400160405280601181526020017f506c6179657220257320697320646561640000000000000000000000000000008152508260010180546118ae90614588565b80601f01602080910402602001604051908101604052809291908181526020018280546118da90614588565b80156119275780601f106118fc57610100808354040283529160200191611927565b820191906000526020600020905b81548152906001019060200180831161190a57829003601f168201915b5050505050612b25565b611a07565b600660040154816003015461194b919061449e565b8160030181905550611a06604051806060016040528060238152602001614d526023913982600101805461197e90614588565b80601f01602080910402602001604051908101604052809291908181526020018280546119aa90614588565b80156119f75780601f106119cc576101008083540402835291602001916119f7565b820191906000526020600020905b8154815290600101906020018083116119da57829003601f168201915b50505050508360030154612bc1565b5b611a2e604051806060016040528060258152602001614d7560259139600660020154612c60565b611a54604051806060016040528060288152602001614e29602891398260030154612c60565b7f838ab28464562786a6c4ab2311964b82fa60bd9b14aa7e856af1f3f18d41a4146006600201548260030154604051611a8e9291906142b1565b60405180910390a15050565b6000600560008473ffffffffffffffffffffffffffffffffffffffff1673ffffffffffffffffffffffffffffffffffffffff16815260200190815260200160002060008373ffffffffffffffffffffffffffffffffffffffff1673ffffffffffffffffffffffffffffffffffffffff16815260200190815260200160002060009054906101000a900460ff16905092915050565b6000611b3a600b612cfc565b9050611b463382612d0a565b6040518060c00160405280838152602001600c8481548110611b91577f4e487b7100000000000000000000000000000000000000000000000000000000600052603260045260246000fd5b90600052602060002090600602016001018054611bad90614588565b80601f0160208091040260200160405190810160405280929190818152602001828054611bd990614588565b8015611c265780601f10611bfb57610100808354040283529160200191611c26565b820191906000526020600020905b815481529060010190602001808311611c0957829003601f168201915b50505050508152602001600c8481548110611c6a577f4e487b7100000000000000000000000000000000000000000000000000000000600052603260045260246000fd5b90600052602060002090600602016002018054611c8690614588565b80601f0160208091040260200160405190810160405280929190818152602001828054611cb290614588565b8015611cff5780601f10611cd457610100808354040283529160200191611cff565b820191906000526020600020905b815481529060010190602001808311611ce257829003601f168201915b50505050508152602001600c8481548110611d43577f4e487b7100000000000000000000000000000000000000000000000000000000600052603260045260246000fd5b9060005260206000209060060201600301548152602001600c8481548110611d94577f4e487b7100000000000000000000000000000000000000000000000000000000600052603260045260246000fd5b9060005260206000209060060201600401548152602001600c8481548110611de5577f4e487b7100000000000000000000000000000000000000000000000000000000600052603260045260246000fd5b906000526020600020906006020160050154815250600d6000838152602001908152602001600020600082015181600001556020820151816001019080519060200190611e3392919061324e565b506040820151816002019080519060200190611e5092919061324e565b50606082015181600301556080820151816004015560a08201518160050155905050611e956040518060600160405280602e8152602001614dfb602e91398284612d28565b80600e60003373ffffffffffffffffffffffffffffffffffffffff1673ffffffffffffffffffffffffffffffffffffffff16815260200190815260200160002081905550611ee3600b611fc4565b7f4bc303fd457a97b4691b9af582ce71868a3d258638c8d4f8c60988a0f0bfb8cd338284604051611f1693929190613d75565b60405180910390a15050565b611fbe84848484604051602401611f3c9493929190613e87565b6040516020818303038152906040527f8d142cdd000000000000000000000000000000000000000000000000000000007bffffffffffffffffffffffffffffffffffffffffffffffffffffffff19166020820180517bffffffffffffffffffffffffffffffffffffffffffffffffffffffff8381831617835250505050612dc7565b50505050565b6001816000016000828254019250508190555050565b60007f01ffc9a7000000000000000000000000000000000000000000000000000000007bffffffffffffffffffffffffffffffffffffffffffffffffffffffff1916827bffffffffffffffffffffffffffffffffffffffffffffffffffffffff1916149050919050565b60008073ffffffffffffffffffffffffffffffffffffffff166002600084815260200190815260200160002060009054906101000a900473ffffffffffffffffffffffffffffffffffffffff1673ffffffffffffffffffffffffffffffffffffffff1614159050919050565b600033905090565b816004600083815260200190815260200160002060006101000a81548173ffffffffffffffffffffffffffffffffffffffff021916908373ffffffffffffffffffffffffffffffffffffffff160217905550808273ffffffffffffffffffffffffffffffffffffffff1661212b836107bc565b73ffffffffffffffffffffffffffffffffffffffff167f8c5be1e5ebec7d5bd14f71427d1e84f3dd0314c0f7b2291e5b200ac8c7c3b92560405160405180910390a45050565b600061217c82612044565b6121bb576040517f08c379a00000000000000000000000000000000000000000000000000000000081526004016121b2906140c3565b60405180910390fd5b60006121c6836107bc565b90508073ffffffffffffffffffffffffffffffffffffffff168473ffffffffffffffffffffffffffffffffffffffff16148061223557508373ffffffffffffffffffffffffffffffffffffffff1661221d8461059f565b73ffffffffffffffffffffffffffffffffffffffff16145b8061224657506122458185611a9a565b5b91505092915050565b8273ffffffffffffffffffffffffffffffffffffffff1661226f826107bc565b73ffffffffffffffffffffffffffffffffffffffff16146122c5576040517f08c379a00000000000000000000000000000000000000000000000000000000081526004016122bc90614043565b60405180910390fd5b600073ffffffffffffffffffffffffffffffffffffffff168273ffffffffffffffffffffffffffffffffffffffff161415612335576040517f08c379a000000000000000000000000000000000000000000000000000000000815260040161232c90614083565b60405180910390fd5b612340838383612df0565b61234b6000826120b8565b6001600360008573ffffffffffffffffffffffffffffffffffffffff1673ffffffffffffffffffffffffffffffffffffffff168152602001908152602001600020600082825461239b919061449e565b925050819055506001600360008473ffffffffffffffffffffffffffffffffffffffff1673ffffffffffffffffffffffffffffffffffffffff16815260200190815260200160002060008282546123f291906143bd565b92505081905550816002600083815260200190815260200160002060006101000a81548173ffffffffffffffffffffffffffffffffffffffff021916908373ffffffffffffffffffffffffffffffffffffffff160217905550808273ffffffffffffffffffffffffffffffffffffffff168473ffffffffffffffffffffffffffffffffffffffff167fddf252ad1be2c89b69c2b068fc378daa952ba7f163c4a11628f55a4df523b3ef60405160405180910390a46124b1838383612df5565b505050565b8173ffffffffffffffffffffffffffffffffffffffff168373ffffffffffffffffffffffffffffffffffffffff161415612525576040517f08c379a000000000000000000000000000000000000000000000000000000000815260040161251c906140a3565b60405180910390fd5b80600560008573ffffffffffffffffffffffffffffffffffffffff1673ffffffffffffffffffffffffffffffffffffffff16815260200190815260200160002060008473ffffffffffffffffffffffffffffffffffffffff1673ffffffffffffffffffffffffffffffffffffffff16815260200190815260200160002060006101000a81548160ff0219169083151502179055508173ffffffffffffffffffffffffffffffffffffffff168373ffffffffffffffffffffffffffffffffffffffff167f17307eab39ab6107e8899845ad3d59bd9653f200f220920489ca2b5937696c31836040516126169190613dce565b60405180910390a3505050565b61262e84848461224f565b61263a84848484612dfa565b612679576040517f08c379a000000000000000000000000000000000000000000000000000000000815260040161267090614023565b60405180910390fd5b50505050565b606060008214156126c7576040518060400160405280600181526020017f30000000000000000000000000000000000000000000000000000000000000008152509050612827565b600082905060005b600082146126f95780806126e2906145eb565b915050600a826126f29190614413565b91506126cf565b60008167ffffffffffffffff81111561273b577f4e487b7100000000000000000000000000000000000000000000000000000000600052604160045260246000fd5b6040519080825280601f01601f19166020018201604052801561276d5781602001600182028036833780820191505090505b5090505b6000851461282057600182612786919061449e565b9150600a856127959190614634565b60306127a191906143bd565b60f81b8183815181106127dd577f4e487b7100000000000000000000000000000000000000000000000000000000600052603260045260246000fd5b60200101907effffffffffffffffffffffffffffffffffffffffffffffffffffffffffffff1916908160001a905350600a856128199190614413565b9450612771565b8093505050505b919050565b6060600082519050600081141561285557604051806020016040528060008152509150506129e5565b6000600360028361286691906143bd565b6128709190614413565b600461287c9190614444565b9050600060208261288d91906143bd565b67ffffffffffffffff8111156128cc577f4e487b7100000000000000000000000000000000000000000000000000000000600052604160045260246000fd5b6040519080825280601f01601f1916602001820160405280156128fe5781602001600182028036833780820191505090505b5090506000604051806060016040528060408152602001614dbb604091399050600181016020830160005b868110156129a25760038101905062ffffff818a015116603f8160121c168401518060081b905060ff603f83600c1c1686015116810190508060081b905060ff603f8360061c1686015116810190508060081b905060ff603f831686015116810190508060e01b90508084526004840193505050612929565b5060038606600181146129bc57600281146129cc576129d7565b613d3d60f01b60028303526129d7565b603d60f81b60018303525b508484525050819450505050505b919050565b612a80816040516024016129fe9190613de9565b6040516020818303038152906040527f41304fac000000000000000000000000000000000000000000000000000000007bffffffffffffffffffffffffffffffffffffffffffffffffffffffff19166020820180517bffffffffffffffffffffffffffffffffffffffffffffffffffffffff8381831617835250505050612dc7565b50565b612b1f84848484604051602401612a9d9493929190613ee1565b6040516020818303038152906040527fd5cf17d0000000000000000000000000000000000000000000000000000000007bffffffffffffffffffffffffffffffffffffffffffffffffffffffff19166020820180517bffffffffffffffffffffffffffffffffffffffffffffffffffffffff8381831617835250505050612dc7565b50505050565b612bbd8282604051602401612b3b929190613e0b565b6040516020818303038152906040527f4b5c4277000000000000000000000000000000000000000000000000000000007bffffffffffffffffffffffffffffffffffffffffffffffffffffffff19166020820180517bffffffffffffffffffffffffffffffffffffffffffffffffffffffff8381831617835250505050612dc7565b5050565b612c5b838383604051602401612bd993929190613e42565b6040516020818303038152906040527ff362ca59000000000000000000000000000000000000000000000000000000007bffffffffffffffffffffffffffffffffffffffffffffffffffffffff19166020820180517bffffffffffffffffffffffffffffffffffffffffffffffffffffffff8381831617835250505050612dc7565b505050565b612cf88282604051602401612c76929190613f95565b6040516020818303038152906040527f9710a9d0000000000000000000000000000000000000000000000000000000007bffffffffffffffffffffffffffffffffffffffffffffffffffffffff19166020820180517bffffffffffffffffffffffffffffffffffffffffffffffffffffffff8381831617835250505050612dc7565b5050565b600081600001549050919050565b612d24828260405180602001604052806000815250612f91565b5050565b612dc2838383604051602401612d4093929190613fc5565b6040516020818303038152906040527f969cdd03000000000000000000000000000000000000000000000000000000007bffffffffffffffffffffffffffffffffffffffffffffffffffffffff19166020820180517bffffffffffffffffffffffffffffffffffffffffffffffffffffffff8381831617835250505050612dc7565b505050565b60008151905060006a636f6e736f6c652e6c6f679050602083016000808483855afa5050505050565b505050565b505050565b6000612e1b8473ffffffffffffffffffffffffffffffffffffffff16612fec565b15612f84578373ffffffffffffffffffffffffffffffffffffffff1663150b7a02612e446120b0565b8786866040518563ffffffff1660e01b8152600401612e669493929190613d29565b602060405180830381600087803b158015612e8057600080fd5b505af1925050508015612eb157506040513d601f19601f82011682018060405250810190612eae9190613592565b60015b612f34573d8060008114612ee1576040519150601f19603f3d011682016040523d82523d6000602084013e612ee6565b606091505b50600081511415612f2c576040517f08c379a0000000000000000000000000000000000000000000000000000000008152600401612f2390614023565b60405180910390fd5b805181602001fd5b63150b7a0260e01b7bffffffffffffffffffffffffffffffffffffffffffffffffffffffff1916817bffffffffffffffffffffffffffffffffffffffffffffffffffffffff191614915050612f89565b600190505b949350505050565b612f9b838361300f565b612fa86000848484612dfa565b612fe7576040517f08c379a0000000000000000000000000000000000000000000000000000000008152600401612fde90614023565b60405180910390fd5b505050565b6000808273ffffffffffffffffffffffffffffffffffffffff163b119050919050565b600073ffffffffffffffffffffffffffffffffffffffff168273ffffffffffffffffffffffffffffffffffffffff16141561307f576040517f08c379a000000000000000000000000000000000000000000000000000000000815260040161307690614143565b60405180910390fd5b61308881612044565b156130c8576040517f08c379a00000000000000000000000000000000000000000000000000000000081526004016130bf90614063565b60405180910390fd5b6130d460008383612df0565b6001600360008473ffffffffffffffffffffffffffffffffffffffff1673ffffffffffffffffffffffffffffffffffffffff168152602001908152602001600020600082825461312491906143bd565b92505081905550816002600083815260200190815260200160002060006101000a81548173ffffffffffffffffffffffffffffffffffffffff021916908373ffffffffffffffffffffffffffffffffffffffff160217905550808273ffffffffffffffffffffffffffffffffffffffff16600073ffffffffffffffffffffffffffffffffffffffff167fddf252ad1be2c89b69c2b068fc378daa952ba7f163c4a11628f55a4df523b3ef60405160405180910390a46131e560008383612df5565b5050565b6040518060a0016040528060608152602001606081526020016000815260200160008152602001600081525090565b6040518060c001604052806000815260200160608152602001606081526020016000815260200160008152602001600081525090565b82805461325a90614588565b90600052602060002090601f01602090048101928261327c57600085556132c3565b82601f1061329557805160ff19168380011785556132c3565b828001600101855582156132c3579182015b828111156132c25782518255916020019190600101906132a7565b5b5090506132d091906132d4565b5090565b5b808211156132ed5760008160009055506001016132d5565b5090565b60006133046132ff846142ff565b6142da565b90508281526020810184848401111561331c57600080fd5b613327848285614546565b509392505050565b60008135905061333e81614cf5565b92915050565b60008135905061335381614d0c565b92915050565b60008135905061336881614d23565b92915050565b60008151905061337d81614d23565b92915050565b600082601f83011261339457600080fd5b81356133a48482602086016132f1565b91505092915050565b6000813590506133bc81614d3a565b92915050565b6000602082840312156133d457600080fd5b60006133e28482850161332f565b91505092915050565b600080604083850312156133fe57600080fd5b600061340c8582860161332f565b925050602061341d8582860161332f565b9150509250929050565b60008060006060848603121561343c57600080fd5b600061344a8682870161332f565b935050602061345b8682870161332f565b925050604061346c868287016133ad565b9150509250925092565b6000806000806080858703121561348c57600080fd5b600061349a8782880161332f565b94505060206134ab8782880161332f565b93505060406134bc878288016133ad565b925050606085013567ffffffffffffffff8111156134d957600080fd5b6134e587828801613383565b91505092959194509250565b6000806040838503121561350457600080fd5b60006135128582860161332f565b925050602061352385828601613344565b9150509250929050565b6000806040838503121561354057600080fd5b600061354e8582860161332f565b925050602061355f858286016133ad565b9150509250929050565b60006020828403121561357b57600080fd5b600061358984828501613359565b91505092915050565b6000602082840312156135a457600080fd5b60006135b28482850161336e565b91505092915050565b6000602082840312156135cd57600080fd5b60006135db848285016133ad565b91505092915050565b60006135f08383613b09565b905092915050565b613601816144d2565b82525050565b600061361282614340565b61361c818561436e565b93508360208202850161362e85614330565b8060005b8581101561366a578484038952815161364b85826135e4565b945061365683614361565b925060208a01995050600181019050613632565b50829750879550505050505092915050565b613685816144e4565b82525050565b60006136968261434b565b6136a0818561437f565b93506136b0818560208601614555565b6136b981614721565b840191505092915050565b60006136cf82614356565b6136d98185614390565b93506136e9818560208601614555565b6136f281614721565b840191505092915050565b600061370882614356565b61371281856143a1565b9350613722818560208601614555565b61372b81614721565b840191505092915050565b600061374182614356565b61374b81856143b2565b935061375b818560208601614555565b80840191505092915050565b6000613774600b836143b2565b915061377f82614732565b600b82019050919050565b60006137976019836143a1565b91506137a28261475b565b602082019050919050565b60006137ba6032836143a1565b91506137c582614784565b604082019050919050565b60006137dd6025836143a1565b91506137e8826147d3565b604082019050919050565b6000613800601c836143a1565b915061380b82614822565b602082019050919050565b60006138236032836143b2565b915061382e8261484b565b603282019050919050565b6000613846600e836143b2565b91506138518261489a565b600e82019050919050565b60006138696024836143a1565b9150613874826148c3565b604082019050919050565b600061388c6019836143a1565b915061389782614912565b602082019050919050565b60006138af602c836143a1565b91506138ba8261493b565b604082019050919050565b60006138d26038836143a1565b91506138dd8261498a565b604082019050919050565b60006138f5602a836143a1565b9150613900826149d9565b604082019050919050565b60006139186029836143a1565b915061392382614a28565b604082019050919050565b600061393b6004836143b2565b915061394682614a77565b600482019050919050565b600061395e6020836143a1565b915061396982614aa0565b602082019050919050565b6000613981602c836143a1565b915061398c82614ac9565b604082019050919050565b60006139a4600a836143b2565b91506139af82614b18565b600a82019050919050565b60006139c76021836143a1565b91506139d282614b41565b604082019050919050565b60006139ea601d836143b2565b91506139f582614b90565b601d82019050919050565b6000613a0d6031836143a1565b9150613a1882614bb9565b604082019050919050565b6000613a30603d836143b2565b9150613a3b82614c08565b603d82019050919050565b6000613a53602d836143b2565b9150613a5e82614c57565b602d82019050919050565b6000613a766025836143a1565b9150613a8182614ca6565b604082019050919050565b600060a0830160008301518482036000860152613aa982826136c4565b91505060208301518482036020860152613ac382826136c4565b9150506040830151613ad86040860182613c29565b506060830151613aeb6060860182613c29565b506080830151613afe6080860182613c29565b508091505092915050565b600060c083016000830151613b216000860182613c29565b5060208301518482036020860152613b3982826136c4565b91505060408301518482036040860152613b5382826136c4565b9150506060830151613b686060860182613c29565b506080830151613b7b6080860182613c29565b5060a0830151613b8e60a0860182613c29565b508091505092915050565b600060c083016000830151613bb16000860182613c29565b5060208301518482036020860152613bc982826136c4565b91505060408301518482036040860152613be382826136c4565b9150506060830151613bf86060860182613c29565b506080830151613c0b6080860182613c29565b5060a0830151613c1e60a0860182613c29565b508091505092915050565b613c328161453c565b82525050565b613c418161453c565b82525050565b6000613c5282613997565b9150613c5e8289613736565b9150613c6982613767565b9150613c758288613736565b9150613c8082613816565b9150613c8c8287613736565b9150613c9782613a23565b9150613ca38286613736565b9150613cae82613839565b9150613cba8285613736565b9150613cc582613a46565b9150613cd18284613736565b9150613cdc8261392e565b9150819050979650505050505050565b6000613cf7826139dd565b9150613d038284613736565b915081905092915050565b6000602082019050613d2360008301846135f8565b92915050565b6000608082019050613d3e60008301876135f8565b613d4b60208301866135f8565b613d586040830185613c38565b8181036060830152613d6a818461368b565b905095945050505050565b6000606082019050613d8a60008301866135f8565b613d976020830185613c38565b613da46040830184613c38565b949350505050565b60006020820190508181036000830152613dc68184613607565b905092915050565b6000602082019050613de3600083018461367c565b92915050565b60006020820190508181036000830152613e0381846136fd565b905092915050565b60006040820190508181036000830152613e2581856136fd565b90508181036020830152613e3981846136fd565b90509392505050565b60006060820190508181036000830152613e5c81866136fd565b90508181036020830152613e7081856136fd565b9050613e7f6040830184613c38565b949350505050565b60006080820190508181036000830152613ea181876136fd565b90508181036020830152613eb581866136fd565b9050613ec46040830185613c38565b8181036060830152613ed681846136fd565b905095945050505050565b60006080820190508181036000830152613efb81876136fd565b90508181036020830152613f0f81866136fd565b9050613f1e6040830185613c38565b613f2b6060830184613c38565b95945050505050565b600060a0820190508181036000830152613f4e81886136fd565b90508181036020830152613f6281876136fd565b9050613f716040830186613c38565b613f7e6060830185613c38565b613f8b6080830184613c38565b9695505050505050565b60006040820190508181036000830152613faf81856136fd565b9050613fbe6020830184613c38565b9392505050565b60006060820190508181036000830152613fdf81866136fd565b9050613fee6020830185613c38565b613ffb6040830184613c38565b949350505050565b6000602082019050818103600083015261401c8161378a565b9050919050565b6000602082019050818103600083015261403c816137ad565b9050919050565b6000602082019050818103600083015261405c816137d0565b9050919050565b6000602082019050818103600083015261407c816137f3565b9050919050565b6000602082019050818103600083015261409c8161385c565b9050919050565b600060208201905081810360008301526140bc8161387f565b9050919050565b600060208201905081810360008301526140dc816138a2565b9050919050565b600060208201905081810360008301526140fc816138c5565b9050919050565b6000602082019050818103600083015261411c816138e8565b9050919050565b6000602082019050818103600083015261413c8161390b565b9050919050565b6000602082019050818103600083015261415c81613951565b9050919050565b6000602082019050818103600083015261417c81613974565b9050919050565b6000602082019050818103600083015261419c816139ba565b9050919050565b600060208201905081810360008301526141bc81613a00565b9050919050565b600060208201905081810360008301526141dc81613a69565b9050919050565b600060208201905081810360008301526141fd8184613a8c565b905092915050565b6000602082019050818103600083015261421f8184613b99565b905092915050565b600060208201905061423c6000830184613c38565b92915050565b600060c0820190506142576000830189613c38565b818103602083015261426981886136fd565b9050818103604083015261427d81876136fd565b905061428c6060830186613c38565b6142996080830185613c38565b6142a660a0830184613c38565b979650505050505050565b60006040820190506142c66000830185613c38565b6142d36020830184613c38565b9392505050565b60006142e46142f5565b90506142f082826145ba565b919050565b6000604051905090565b600067ffffffffffffffff82111561431a576143196146f2565b5b61432382614721565b9050602081019050919050565b6000819050602082019050919050565b600081519050919050565b600081519050919050565b600081519050919050565b6000602082019050919050565b600082825260208201905092915050565b600082825260208201905092915050565b600082825260208201905092915050565b600082825260208201905092915050565b600081905092915050565b60006143c88261453c565b91506143d38361453c565b9250827fffffffffffffffffffffffffffffffffffffffffffffffffffffffffffffffff0382111561440857614407614665565b5b828201905092915050565b600061441e8261453c565b91506144298361453c565b92508261443957614438614694565b5b828204905092915050565b600061444f8261453c565b915061445a8361453c565b9250817fffffffffffffffffffffffffffffffffffffffffffffffffffffffffffffffff048311821515161561449357614492614665565b5b828202905092915050565b60006144a98261453c565b91506144b48361453c565b9250828210156144c7576144c6614665565b5b828203905092915050565b60006144dd8261451c565b9050919050565b60008115159050919050565b60007fffffffff0000000000000000000000000000000000000000000000000000000082169050919050565b600073ffffffffffffffffffffffffffffffffffffffff82169050919050565b6000819050919050565b82818337600083830152505050565b60005b83811015614573578082015181840152602081019050614558565b83811115614582576000848401525b50505050565b600060028204905060018216806145a057607f821691505b602082108114156145b4576145b36146c3565b5b50919050565b6145c382614721565b810181811067ffffffffffffffff821117156145e2576145e16146f2565b5b80604052505050565b60006145f68261453c565b91507fffffffffffffffffffffffffffffffffffffffffffffffffffffffffffffffff82141561462957614628614665565b5b600182019050919050565b600061463f8261453c565b915061464a8361453c565b92508261465a57614659614694565b5b828206905092915050565b7f4e487b7100000000000000000000000000000000000000000000000000000000600052601160045260246000fd5b7f4e487b7100000000000000000000000000000000000000000000000000000000600052601260045260246000fd5b7f4e487b7100000000000000000000000000000000000000000000000000000000600052602260045260246000fd5b7f4e487b7100000000000000000000000000000000000000000000000000000000600052604160045260246000fd5b6000601f19601f8301169050919050565b7f202d2d204e465420233a20000000000000000000000000000000000000000000600082015250565b7f4572726f723a20426f737320616c726561647920646561642100000000000000600082015250565b7f4552433732313a207472616e7366657220746f206e6f6e20455243373231526560008201527f63656976657220696d706c656d656e7465720000000000000000000000000000602082015250565b7f4552433732313a207472616e736665722066726f6d20696e636f72726563742060008201527f6f776e6572000000000000000000000000000000000000000000000000000000602082015250565b7f4552433732313a20746f6b656e20616c7265616479206d696e74656400000000600082015250565b7f222c20226465736372697074696f6e223a2022416e2065706963204e4654222c60008201527f2022696d616765223a2022697066733a2f2f0000000000000000000000000000602082015250565b7f2c20226d61785f76616c7565223a000000000000000000000000000000000000600082015250565b7f4552433732313a207472616e7366657220746f20746865207a65726f2061646460008201527f7265737300000000000000000000000000000000000000000000000000000000602082015250565b7f4552433732313a20617070726f766520746f2063616c6c657200000000000000600082015250565b7f4552433732313a206f70657261746f7220717565727920666f72206e6f6e657860008201527f697374656e7420746f6b656e0000000000000000000000000000000000000000602082015250565b7f4552433732313a20617070726f76652063616c6c6572206973206e6f74206f7760008201527f6e6572206e6f7220617070726f76656420666f7220616c6c0000000000000000602082015250565b7f4552433732313a2062616c616e636520717565727920666f7220746865207a6560008201527f726f206164647265737300000000000000000000000000000000000000000000602082015250565b7f4552433732313a206f776e657220717565727920666f72206e6f6e657869737460008201527f656e7420746f6b656e0000000000000000000000000000000000000000000000602082015250565b7f7d205d7d00000000000000000000000000000000000000000000000000000000600082015250565b7f4552433732313a206d696e7420746f20746865207a65726f2061646472657373600082015250565b7f4552433732313a20617070726f76656420717565727920666f72206e6f6e657860008201527f697374656e7420746f6b656e0000000000000000000000000000000000000000602082015250565b7f7b226e616d65223a202200000000000000000000000000000000000000000000600082015250565b7f4552433732313a20617070726f76616c20746f2063757272656e74206f776e6560008201527f7200000000000000000000000000000000000000000000000000000000000000602082015250565b7f646174613a6170706c69636174696f6e2f6a736f6e3b6261736536342c000000600082015250565b7f4552433732313a207472616e736665722063616c6c6572206973206e6f74206f60008201527f776e6572206e6f7220617070726f766564000000000000000000000000000000602082015250565b7f222c202261747472696275746573223a205b207b202274726169745f7479706560008201527f223a20224865616c746820506f696e7473222c202276616c7565223a20000000602082015250565b7f7d2c207b202274726169745f74797065223a202241747461636b2044616d616760008201527f65222c202276616c7565223a2000000000000000000000000000000000000000602082015250565b7f4572726f723a20506c61796572206d75737420626520616c69766520746f206160008201527f747461636b000000000000000000000000000000000000000000000000000000602082015250565b614cfe816144d2565b8114614d0957600080fd5b50565b614d15816144e4565b8114614d2057600080fd5b50565b614d2c816144f0565b8114614d3757600080fd5b50565b614d438161453c565b8114614d4e57600080fd5b5056fe506c61796572202573207761732061747461636b656421204e65772048503a20257320506c617965722061747461636b656420626f73732e204e657720626f73732068703a202573426f7373202573207761732061747461636b656421204e65772048503a202573204142434445464748494a4b4c4d4e4f505152535455565758595a6162636465666768696a6b6c6d6e6f707172737475767778797a303132333435363738392b2f4d696e746564204e4654202f7720746f6b656e494420257320616e6420636861726163746572496e646578202573426f73732061747461636b656420706c617965722e204e657720706c617965722068703a2025730a0a506c6179657220772f206368617261637465722025732061626f757420746f2061747461636b2e2048617320257320485020616e64202573204144a2646970667358221220ffb677ba792ffb04538b3b82a91dbd5fe4dad9c9e76ac64f00259a25a8766c2764736f6c63430008010033446f6e6520696e697469616c697a696e6720257320772f2048502025732c20696d67202573446f6e6520696e697469616c697a696e6720626f737320257320772f2048502025732c20696d67202573",
  "linkReferences": {},
  "deployedLinkReferences": {}
}